:020000040800F2
:1000000000000520D12F0008FD0A0008FF0A0008A3
:10001000010B0008030B0008050B0008000000009E
:10002000000000000000000000000000070B0008B6
:10003000090B0008000000000B0B00080D0B000866
:10004000213000082130000821300008213000084C
:10005000213000082130000821300008213000083C
:10006000213000082130000821300008213000082C
:10007000150B000821300008250B0008213000086E
:10008000213000082130000821300008213000080C
:1000900021300008213000082130000821300008FC
:1000A00021300008213000082130000821300008EC
:1000B00021300008213000082130000821300008DC
:1000C00021300008213000082130000821300008CC
:1000D00021300008213000082130000821300008BC
:1000E00021300008213000082130000821300008AC
:1000F000213000082130000821300008213000089C
:10010000213000082130000821300008213000088B
:10011000213000082130000821300008213000087B
:10012000213000082130000821300008213000086B
:10013000213000082130000821300008213000085B
:10014000213000082130000821300008213000084B
:10015000213000082130000821300008350B00084C
:10016000213000082130000821300008213000082B
:100170002130000821300008213000080000000074
:10018000213000082130000821300008213000080B
:1001900021300008213000082130000821300008FB
:1001A00021300008213000082130000821300008EB
:1001B00021300008213000082130000821300008DB
:0801C000213000082130000885
:1001C8000348044B834202D0034B03B118477047DE
:1001D8000C0000200C000020000000000548064923
:1001E8000B1AD90F01EBA301491002D0034B03B13D
:1001F800184770470C0000200C0000200000000089
:1002080010B5064C237843B9FFF7DAFF044B13B156
:100218000448AFF300800123237010BD0C000020B8
:10022800000000002430000808B5044B1BB1044945
:100238000448AFF30080BDE80840CFE700000000A5
:10024800100000202430000870B50D4E0D4D761BAF
:10025800B61006D0002455F8043B01349847A6424E
:10026800F9D1094E094D761B02F0D8FEB61006D01A
:10027800002455F8043B01349847A642F9D170BDD3
:100288009C3000089C300008A03000089C30000812
:10029800830730B548D0541E002A3FD0CAB203465F
:1002A80001E0013C3AD303F8012B9D07F9D1032C57
:1002B8002DD9CDB245EA05250F2C45EA054536D995
:1002C800A4F1100222F00F0C03F1200EE6444FEACD
:1002D800121C03F1100242E9045542E9025510329A
:1002E8007245F8D10CF1010214F00C0F03EB021265
:1002F80004F00F0C13D0ACF1040323F00303043310
:10030800134442F8045B9342FBD10CF003042CB174
:10031800CAB21C4403F8012B9C42FBD130BD644691
:100328001346002CF4D1F9E703461446BFE71A46F2
:10033800A446E0E753B94AB9002908BF00281CBF02
:100348004FF0FF314FF0FF3000F074B9ADF1080CF9
:100358006DE904CE00F006F8DDF804E0DDE90223DB
:1003680004B070472DE9F047089D04468E46002BDF
:100378004DD18A42944669D9B2FA82F252B101FA51
:1003880002F3C2F1200120FA01F10CFA02FC41EA61
:10039800030E94404FEA1C48210CBEFBF8F61FFAE6
:1003A8008CF708FB16E341EA034306FB07F1994281
:1003B8000AD91CEB030306F1FF3080F01F81994234
:1003C80040F21C81023E63445B1AA4B2B3FBF8F00E
:1003D80008FB103344EA034400FB07F7A7420AD995
:1003E8001CEB040400F1FF3380F00A81A74240F2BD
:1003F80007816444023840EA0640E41B00261DB128
:10040800D4400023C5E900433146BDE8F0878B425C
:1004180009D9002D00F0EF800026C5E9000130461B
:100428003146BDE8F087B3FA83F6002E4AD18B42F5
:1004380002D3824200F2F980841A61EB030301209F
:100448009E46002DE0D0C5E9004EDDE702B9FFDE8B
:10045800B2FA82F2002A40F09280A1EB0C014FEA36
:100468001C471FFA8CFE0126200CB1FBF7F307FB93
:10047800131140EA01410EFB03F0884208D91CEB36
:10048800010103F1FF3802D2884200F2CB804346D3
:10049800091AA4B2B1FBF7F007FB101144EA0144B2
:1004A8000EFB00FEA64508D91CEB040400F1FF3141
:1004B80002D2A64500F2BB800846A4EB0E0440EA2F
:1004C80003409CE7C6F12007B34022FA07FC4CEA38
:1004D800030C20FA07F401FA06F31C43F9404FEA2B
:1004E8001C4900FA06F3B1FBF9F8200C1FFA8CFE40
:1004F80009FB181140EA014108FB0EF0884202FA94
:1005080006F20BD91CEB010108F1FF3A80F0888054
:10051800884240F28580A8F102086144091AA4B211
:10052800B1FBF9F009FB101144EA014100FB0EFE92
:100538008E4508D91CEB010100F1FF346CD28E45C1
:100548006AD90238614440EA0840A0FB0294A1EB52
:100558000E01A142C846A64656D353D05DB1B3EBAF
:10056800080261EB0E0101FA07F722FA06F3F140DF
:100578001F43C5E9007100263146BDE8F087C2F186
:100588002003D8400CFA02FC21FA03F391400143FE
:100598004FEA1C471FFA8CFEB3FBF7F007FB103637
:1005A8000B0C43EA064300FB0EF69E4204FA02F4E3
:1005B80008D91CEB030300F1FF382FD29E422DD936
:1005C800023863449B1B89B2B3FBF7F607FB16336B
:1005D80041EA034106FB0EF38B4208D91CEB0101EB
:1005E80006F1FF3816D28B4214D9023E6144C91A6B
:1005F80046EA004638E72E46284605E70646E3E67B
:100608001846F8E64B45A9D2B9EB020864EB0C0E84
:100618000138A3E74646EAE7204694E74046D1E793
:10062800D0467BE7023B614432E7304609E7644441
:10063800023842E7704700BF044BD3F81C3413F06C
:10064800800FF9D0014BC3F828047047001001400F
:1006580038B50546002402E0FFF7EEFF0134285DB7
:100668000028F9D138BD002300E00133C25C002A1C
:10067800FBD10A2343707047002302E00022C254D2
:100688000133632BFADD704738B5144B834200D031
:1006980038BD1D461A68136823F0100313602846F6
:1006A80000F04EFB2B6810221A621A6842F0100202
:1006B8001A600B4C64222146284601F091FA204624
:1006C800FFF7D1FF64222146064800F0EFFA2046E2
:1006D800FFF7BEFF2046FFF7CFFFD9E74C01002008
:1006E80028000020D4010020324B984200D07047E7
:1006F80070B504461E461A68136823F01003136089
:10070800304600F0E2FE0546304600F0E3FB681E86
:100718000F2817D8DFE800F0081716261616163522
:100728001616161616161643224D4FF47A730A2219
:100738002149284601F035F92B6801221A62002365
:10074800C4F8843070BD1B4D4FF47A7309221B49DD
:10075800284601F026F92B6804221A620023C4F8FF
:100768008430EFE7134D4FF47A7309221449284671
:1007780001F017F92B6802221A620023C4F88430AA
:10078800E0E74FF47A730B220E490A4801F009F9A1
:10079800236808221A620023C4F88430D2E74FF491
:1007A8007A7307220849034801F0FBF80023C4F8CC
:1007B8008430C7E74C0100203C300008483000086E
:1007C80054300008603000086C30000872B6FEE74C
:1007D80000B595B03022002108A8FFF759FD002385
:1007E80003930493059306930793194A116C41F0F8
:1007F80080511164126C02F080520192019A1549DD
:100808000A6822F4404242F480420A600A6802F40C
:1008180040420292029A0222089201220B9210226E
:100828000C920E9308A801F0FBF968B90F23039303
:100838000021049105910691079103A801F05CFC41
:1008480020B915B05DF804FBFFF7C0FFFFF7BEFF46
:10085800003802400070004008B502F08DFBFFF739
:10086800B7FF00F017F800F02DF800F04DF800F091
:1008780067F8064B1A68136843F010031360642284
:100888000349024801F0ACF9F9E700BF4C01002028
:100898002800002082B00A4B1A6B42F004021A6347
:1008A8001A6B02F004020092009A1A6B42F02002BE
:1008B8001A631B6B03F020030193019B02B070477E
:1008C8000038024000B583B00E4B1A6B42F4001298
:1008D8001A631B6B03F400130193019B002211465A
:1008E8000C2000F055F90C2000F088F90022114680
:1008F8000E2000F04DF90E2000F080F903B05DF8ED
:1009080004FB00BF0038024008B50B480B4B0360DE
:100918004FF41653436000238360C36003610C22C5
:1009280042618361C3610362436201F0BEF800B9AA
:1009380008BDFFF74BFFFBE7D4010020007800401B
:1009480008B50B480B4B03604FF4E13343600023B9
:100958008360C36003610C2242618361C3610362E7
:10096800436201F0A2F800B908BDFFF72FFFFBE7CB
:100978004C0100200014014030B5ABB00446002102
:1009880025912691279128912991842204A8FFF77F
:100998007FFC23684E4A934204D04E4A934262D069
:1009A8002BB030BD4FF48053049304A801F080FCB1
:1009B80000284FD1484B1A6C42F080421A641A6CD6
:1009C80002F080420092009A1A6B42F020021A63E9
:1009D8001B6B03F020030193019BC0232593022383
:1009E800269300252795032328930823299325A9CF
:1009F8003A4801F033FF3A483A4B03604FF020631E
:100A080043608560C5604FF480630361456185611B
:100A1800C5610562456202F09BF8F0B9304B636727
:100A28009C633148314B03604FF02063436040239F
:100A380083600023C3604FF4806202614361836175
:100A4800C3610362436202F083F848B9264B236707
:100A58009C63A5E7FFF7BAFEACE7FFF7B7FEDDE753
:100A6800FFF7B4FEF2E74FF40063049304A801F023
:100A78001FFC48BB184B5A6C42F020025A645A6C4F
:100A880002F020020292029A1A6B42F004021A63E0
:100A98001B6B03F004030393039BC02325930223DA
:100AA800269300242794032328930823299325A910
:100AB8000F4801F0D3FE22462146472000F068F88F
:100AC800472000F09BF86BE7FFF780FED2E700BFF6
:100AD8000078004000140140003802400014024031
:100AE8008C00002058600240EC0000202860024082
:100AF80000080240FEE7FEE7FEE7FEE7FEE7704774
:100B08007047704708B502F043FA08BD08B50248B7
:100B180002F01CF908BD00BFEC00002008B502482F
:100B280002F014F908BD00BF8C00002008B5024887
:100B380000F0A4FA08BD00BF4C01002082B00A4BA7
:100B48001A6C42F080521A641A6C02F080520092B9
:100B5800009A5A6C42F480425A645B6C03F48043F6
:100B68000193019B02B07047003802400649CB68E8
:100B780023F4E0631B041B0C000200F4E060034351
:100B8800024A1A43CA60704700ED00E00000FA0507
:100B980000B5174BDB68C3F30223C3F1070CBCF1A4
:100BA800040F28BF4FF0040C03F1040EBEF1060F2A
:100BB80014D9033B4FF0FF3E0EFA0CFC21EA0C015E
:100BC80099400EFA03F322EA03031943002807DBCE
:100BD8000901C9B2074B19545DF804FB0023E9E782
:100BE80000F00F000901C9B2034B1954F4E700BF24
:100BF80000ED00E000E400E014ED00E0002807DB71
:100C080000F01F02400901239340024A42F82030B5
:100C1800704700BF00E100E00138B0F1807F0BD2DF
:100C28004FF0E0235861054AF02182F82310002094
:100C3800986107221A6170470120704700ED00E0B3
:100C4800026852E8003F23F0C00342E8003100295F
:100C5800F6D12023C3677047026852E8003F23F4A7
:100C6800907342E800310029F6D1026802F10803C6
:100C780053E8003F23F00103083242E8003100291D
:100C8800F3D1036E012B06D02023C0F88030002357
:100C9800036683667047026852E8003F23F010033A
:100CA80042E800310029F6D1EEE700001346C26F92
:100CB800202A3BD110B50446002B18BF002937D095
:100CC800C164A0F85030A0F852300022C0F8842047
:100CD8002122C267026FC2B11649D163026F164959
:100CE8001164026F1549D164026F00211165026811
:100CF8002832C16C006F01F091FF30B11023C4F8A5
:100D080084302023E36701200FE0236840221A6221
:100D1800226802F1080353E8003F43F080030832D9
:100D280042E800310029F3D1002010BD02207047AD
:100D38000120FAE7F90D0008630E00086F0E00089D
:100D480010B50446226852E8003F23F4907342E845
:100D580000310029F6D1226802F1080353E8003F68
:100D680023F00103083242E800310029F3D1236E51
:100D7800012B28D023689B6813F0400F13D02268FA
:100D880002F1080353E8003F23F04003083242E829
:100D980000310029F3D1636F2BB100221A65606F0F
:100DA80001F076FFC8B90020A4F85A0023680F2282
:100DB8001A622268936943F0080393612023C4F8F8
:100DC8008030206610BD226852E8003F23F01003EF
:100DD80042E800310029F6D1CCE7606F02F0A4F8B0
:100DE8002028E0D11023C4F884300320EAE77047B4
:100DF80008B50346806BDB69B3F5807F18D0002304
:100E0800A0F85230026802F1080353E8003F23F0CB
:100E18008003083242E800310029F3D1026852E821
:100E2800003F43F0400342E800310029F6D108BDF5
:100E3800FFF7DDFFFBE708B5026852E8003F23F043
:100E4800400342E800310029F6D12023C36700237C
:100E5800C366FFF7CCFF08BD704708B5806BFFF786
:100E6800FBFF08BD704738B5846BE26FD4F880503B
:100E780023689B6813F0800F01D0212A10D02368C3
:100E88009B6813F0400F01D0222D10D0D4F8843085
:100E980043F01003C4F884302046FFF725FC38BD22
:100EA8000023A4F852302046FFF7CAFEE7E70023E4
:100EB800A4F85A302046FFF7CFFEE7E708B5806B65
:100EC8000023A0F85A30A0F85230FFF70DFC08BDF7
:100ED8007047000038B50446226852E8003F23F402
:100EE800F07342E800310029F6D1226802F10803C4
:100EF80053E8003F23F00103083242E8003100299B
:100F0800F3D1236E012B2ED0236F33B12268926860
:100F180012F0800F31D0394A1A65636F33B12268F5
:100F2800926812F0400F2BD0354A1A6523689B68E7
:100F380013F0800F27D0216801F1080353E8003F20
:100F480023F08003083141E800321546002AF2D127
:100F5800206F00284BD001F0E5FEA8B1236F0022D6
:100F68001A65012510E0226852E8003F23F01003BB
:100F780042E800310029F6D1C6E700221A65CCE71D
:100F880000221A65D2E7012523689B6813F0400FF9
:100F98002FD0226802F1080353E8003F23F04003F2
:100FA800083242E800310029F3D1606F08B301F03C
:100FB800B9FE00B3636F00221A650023A4F852300B
:100FC800A4F85A30A366E366C4F8843022680F2177
:100FD800116221688A6942F008028A612022E26768
:100FE800C4F8802023662046FFF772FF03E001253E
:100FF800CAE7012DE1D0002038BD00BF4D10000820
:101008000D10000808B5806B436F00221A65036F46
:101018000BB11B6DABB90023A0F85230A0F85A30C1
:10102800C0F8843002680F21116201688A6942F0B1
:1010380008028A612022C267C0F880200366FFF791
:1010480047FF08BD08B5806B036F00221A65436F20
:101058000BB11B6D83B90023A0F85230A0F85A30A9
:10106800C0F8843002680F2111622022C267C0F8DC
:1010780080200366FFF72CFF08BD704738B504468B
:101088000168CB6908688D6840F60F021A4005D1DF
:1010980013F0200F02D010F0200F20D12AB115F044
:1010A800010522D1AD4A10421FD1226E012A00F05B
:1010B800AC8013F0800F03D010F0800F40F03F8118
:1010C80013F0400F03D010F0400F40F03F8113F0B1
:1010D800100F03D010F0100F40F03C8138BDA36E04
:1010E800002BFBD020469847F8E713F0010F0AD0F1
:1010F80010F4807F07D001220A62D4F8842042F0DD
:101108000102C4F8842013F0020F09D045B1226807
:1011180002211162D4F8842042F00402C4F8842029
:1011280013F0040F09D045B1226804211162D4F8E4
:10113800842042F00202C4F8842013F0080F0BD078
:1011480010F0200F00D13DB1226808211162D4F8B7
:1011580084200A43C4F8842013F4006F0CD010F0E4
:10116800806F09D022684FF400611162D4F884209E
:1011780042F02002C4F88420D4F88420002AADD09C
:1011880013F0200F06D010F0200F03D0A36E0BB180
:1011980020469847D4F8842023689B6813F0400FB2
:1011A80002D112F0280F29D02046FFF755FD2368F9
:1011B8009B6813F0400F1DD0226802F1080353E822
:1011C800003F23F04003083242E800310029F3D100
:1011D800636F5BB1624A1A65606F01F0A3FD002876
:1011E8003FF47CAF606F036D984777E72046FFF7C1
:1011F8007BFA73E72046FFF777FA6FE72046FFF799
:1012080073FA0023C4F8843068E713F0100F3FF432
:1012180050AF10F0100F3FF44CAF10230B6223684F
:101228009B6813F0400F50D0626F13685B689BB2E5
:10123800002B3FF453AFB4F8581099427FF64EAFE5
:10124800A4F85A30D369B3F5807F31D0226852E8C8
:10125800003F23F4807342E800310029F6D1226868
:1012680002F1080353E8003F23F00103083242E883
:1012780000310029F3D1226802F1080353E8003F46
:1012880023F04003083242E800310029F3D120233B
:10129800C4F8803000232366226852E8003F23F018
:1012A800100342E800310029F6D1606F01F0F0FC2C
:1012B80002236366B4F85810B4F85A309BB2C91ABE
:1012C80089B22046FFF7D9FE08E7B4F85810B4F8F9
:1012D8005A309BB2C91A89B2B4F85A309BB2002B63
:1012E8003FF4FCAE00293FF4F9AE226852E8003F13
:1012F80023F4907342E800300028F6D1226802F106
:10130800080353E8003F23F00103083242E80030A5
:101318000028F3D12023C4F8803000232366A36675
:10132800226852E8003F23F0100342E8003000280A
:10133800F6D1022363662046FFF79FFECEE6E36EF2
:10134800002B3FF4CBAE20469847C7E62046FFF770
:1013580072FDC3E62046FFF797F9BFE620010004B7
:10136800C50E000808B5B0F85C30D0F88020222AF5
:1013780005D00268936943F00803936108BD0268C9
:10138800516ADBB2426D0B401370436D0133436504
:10139800B0F85A309BB2013B9BB2A0F85A30B0F873
:1013A8005A309BB2002BE9D1026852E8003F23F47F
:1013B800907342E800310029F6D1026802F108036F
:1013C80053E8003F23F00103083242E800310029C6
:1013D800F3D12023C0F88030002383664366036E70
:1013E800012B16D100230366026852E8003F23F060
:1013F800100342E800310029F6D10368DA6912F0D7
:10140800100F01D010221A62B0F85810FFF735FEFD
:10141800B4E7FFF727FDB1E708B5B0F85C20D0F8CE
:101428008030222B05D00268936943F0080393614A
:1014380008BD03685B6A416D13400B80436D02333E
:101448004365B0F85A309BB2013B9BB2A0F85A30C2
:10145800B0F85A309BB2002BEAD1026852E8003F3C
:1014680023F4907342E800310029F6D1026802F1B2
:10147800080353E8003F23F00103083242E8003133
:101488000029F3D12023C0F8803000238366436607
:10149800036E012B16D100230366026852E8003F51
:1014A80023F0100342E800310029F6D10368DA6915
:1014B80012F0100F01D010221A62B0F85810FFF77E
:1014C800DCFDB5E7FFF7CEFCB2E7D0F88400704743
:1014D80010B5044683680269134342691343C2691D
:1014E800134301680868934A024013430B6022685B
:1014F800536823F44053E1680B435360A269236A9D
:101508001A4321688B6823F4306313438B60236884
:10151800894A934219D0894A934229D0884A9342EA
:101528003ED0884A934262D0874A934271D0874A14
:10153800934200F08380864A934200F09480854A63
:10154800934200F0A58010233AE0834BD3F8903003
:1015580003F00303032B09D8DFE803F00204AE0607
:1015680001232DE004232BE0082329E0102327E0A2
:10157800794BD3F8903003F00C030C2B0ED8DFE82E
:1015880003F0070D0D0D090D0D0D9D0D0D0D0B0033
:10159800002315E0042313E0082311E010230FE0D3
:1015A8006D4BD3F8903003F03003202B00F0888087
:1015B80019D8002B00F08680102B40F0858004237A
:1015C800E069B0F5004F00F0AB80082B00F20C8109
:1015D800DFE813F0E800FB00E6000A01FE000A015C
:1015E8000A010A010101302B70D10823E8E75A4BA0
:1015F800D3F8903003F0C003802B69D005D8002BB6
:1016080068D0402B68D10423DAE7C02B66D10823C1
:10161800D6E7514BD3F8903003F44073B3F5007F0D
:101628005ED006D8002B5DD0B3F5807F5CD1042353
:10163800C6E7B3F5407F59D10823C1E7464BD3F835
:10164800903003F44063B3F5006F51D006D8002BF7
:1016580050D0B3F5806F4FD10423B1E7B3F5406F95
:101668004CD10823ACE73C4BD3F8903003F44053FB
:10167800B3F5005F44D006D8002B43D0B3F5805FA4
:1016880042D104239CE7B3F5405F3FD1082397E795
:10169800314BD3F8903003F44043B3F5004F37D0C3
:1016A80005D8BBB3B3F5804F36D1042388E7B3F52B
:1016B800404F33D1082383E7022381E702237FE7E2
:1016C80002237DE700237BE7102379E7102377E7E0
:1016D800022375E7002373E7102371E710236FE7F0
:1016E80002236DE700236BE7102369E7102367E700
:1016F800022365E7012363E7102361E710235FE70F
:1017080002235DE700235BE7102359E7102357E71F
:10171800022355E7002353E7102351E710234FE72F
:10172800082B5BD8DFE803F01A343A5A375A5A5A6A
:101738001E0000BFF369FFEF0010014000440040A5
:1017480000480040004C0040005000400014014098
:1017580000780040007C00400038024000F088FD1E
:1017680000283DD06268530803EB4000B0FBF2F05C
:10177800A0F110024FF6EF739A4233D883B223F0E8
:101788000F03C0F3420018432368D860002030E0FC
:1017980000F07EFDE4E700F05DFCE1E71748E1E7D3
:1017A800164802E000F064FD00B3636800EB5300E4
:1017B800B0FBF3F0A0F110024FF6EF739A4217D87E
:1017C800236880B2D860002013E000F061FDEBE7E9
:1017D80000F040FCE8E74FF40040E6E7012008E0AD
:1017E800002006E0012004E0012002E0002000E0E3
:1017F80001200023A366E36610BD00BF0024F400A7
:10180800436A13F0010F06D00268536823F40033CB
:10181800816A0B435360436A13F0020F06D00268D3
:10182800536823F48033C16A0B435360436A13F04F
:10183800040F06D00268536823F48023016B0B431E
:101848005360436A13F0080F06D00268536823F404
:101858000043416B0B435360436A13F0100F06D0EB
:101868000268936823F48053816B0B439360436A47
:1018780013F0200F06D00268936823F40053C16B5D
:101888000B439360436A13F0400F0AD00268536811
:1018980023F48013016C0B435360036CB3F5801F72
:1018A8000BD0436A13F0800F06D00268536823F404
:1018B8000023816C0B43536070470268536823F41C
:1018C800C003416C0B435360EBE72DE9F843054631
:1018D8000F4616469946DDF820802C68E46937EAF9
:1018E80004030CBF4FF0010C4FF0000CB44555D168
:1018F800B8F1FF3FF1D001F057FBA0EB09004045DC
:101908002ED8B8F1000F2BD02B681A6812F0040FEC
:10191800E3D0DA6912F4006FDFD04FF400621A6284
:101928002A6852E8003F23F4D07342E800310029C6
:10193800F6D12A6802F1080353E8003F23F00103B7
:10194800083242E800310029F3D12023EB67C5F8BB
:101958008030C5F88430002385F8783003201EE0F5
:101968002A6852E8003F23F4D07342E80031002986
:10197800F6D12A6802F1080353E8003F23F0010377
:10198800083242E800310029F3D12023EB67C5F87B
:101998008030002385F87830032000E00020BDE87F
:1019A800F8832DE9F04182B01E46C36F202B4ED13B
:1019B80004460D469046002A18BF002901D101208F
:1019C80046E00023C0F884302123C36701F0ECFA15
:1019D8000746A4F85080A4F85280A368B3F5805F46
:1019E80002D04FF0000811E0236913B34FF000084C
:1019F8000CE038F8023B2268C3F308039362B4F89A
:101A0800522092B2013A92B2A4F85220B4F852305D
:101A18009BB28BB100963B46002280212046FFF7FF
:101A280054FFC0B9002DE4D015F8012B23689A6241
:101A3800E5E7A8460025E9E700963B460022402155
:101A48002046FFF742FF40B92023E36700E0022069
:101A580002B0BDE8F0810320FAE70320F8E710B5EB
:101A680082B004460023C0F8843001F09DFA236850
:101A78001B6813F0080F0AD12023E367C4F88030ED
:101A880000202066606684F8780002B010BD6FF010
:101A98007E430093034600224FF400112046FFF7CF
:101AA80014FF0028E8D00320EFE768B310B5044618
:101AB800C36F03B32423E3672268136823F0010389
:101AC80013602046FFF704FD012813D0636ABBB9F1
:101AD8002268536823F4904353602268936823F084
:101AE8002A0393602268136843F0010313602046B9
:101AF800FFF7B5FF10BD80F87830FEF73DFFD9E756
:101B08002046FFF77DFEE3E7012070474165A0F816
:101B18005820A0F85A20002383668368B3F5805FB5
:101B280006D0A3B9036973B9FF23A0F85C3014E0A9
:101B3800036923B940F2FF13A0F85C300DE0FF23DE
:101B4800A0F85C3009E07F23A0F85C3005E0B3F131
:101B5800805F27D00023A0F85C300023C0F88430D1
:101B68002223C0F88030026802F1080353E8003FDE
:101B780043F00103083242E800310029F3D18368B9
:101B8800B3F5805F18D0144B83660369D3B102683C
:101B980052E8003F43F4907342E800310029F6D13F
:101BA8000020704703691BB97F23A0F85C30D4E795
:101BB8003F23A0F85C30D0E70369002BE3D1074B43
:101BC8008366E2E7026852E8003F43F0200342E8F8
:101BD80000310029F6D1E3E76D130008211400084D
:101BE80038B5D0F88030202B16D1002A18BF00292C
:101BF80014D00023036603685B6813F4000F08D051
:101C0800046854E8003F43F0806344E80035002D41
:101C1800F6D1FFF77BFF00E0022038BD0120FCE78A
:101C2800002800F0FF8170B582B00446036813F005
:101C3800010F29D0954B9B6803F00C03042B1AD095
:101C4800924B9B6803F00C03082B0FD06368B3F525
:101C5800803F40D0002B54D18C4B1A6822F480323C
:101C68001A601A6822F480221A6039E0874B5B6890
:101C780013F4800FEAD0854B1B6813F4003F03D0A0
:101C88006368002B00F0D081236813F0020F74D032
:101C98007E4B9B6813F00C0F5ED07C4B9B6803F067
:101CA8000C03082B53D0E368002B00F08980774A97
:101CB800136843F00103136001F076F90546734B8E
:101CC8001B6813F0020F72D101F06EF9401B022855
:101CD800F5D90320ADE16D4A136843F480331360EE
:101CE80063682BB301F060F90546684B1B6813F471
:101CF800003FC9D101F058F9401B6428F5D90320E9
:101D080097E1B3F5A02F09D0604B1A6822F480320E
:101D18001A601A6822F480221A60E1E75B4B1A689D
:101D280042F480221A601A6842F480321A60D7E7B7
:101D380001F03AF90546554B1B6813F4003FA3D050
:101D480001F032F9401B6428F5D9032071E14F4BAB
:101D58005B6813F4800FA6D14C4B1B6813F0020F7D
:101D680003D0E368012B40F06181484A136823F0EF
:101D7800F803216943EAC1031360236813F0080FCD
:101D880046D0636983B3414A536F43F001035367F5
:101D980001F00AF905463D4B5B6F13F0020F37D18E
:101DA80001F002F9401B0228F5D9032041E1374A26
:101DB800136823F0F803216943EAC1031360DCE7E1
:101DC800324A136823F00103136001F0EDF8054669
:101DD8002E4B1B6813F0020FCFD001F0E5F8401B23
:101DE8000228F5D9032024E1284A536F23F0010380
:101DF800536701F0D9F80546244B5B6F13F0020FC7
:101E080006D001F0D1F8401B0228F5D9032010E1D3
:101E1800236813F0040F7DD01C4B1B6C13F0805FFC
:101E28001ED11A4B1A6C42F080521A641B6C03F0D4
:101E380080530193019B0125154B1B6813F4807F88
:101E480010D0A368012B25D0002B3BD10F4B1A6F64
:101E580022F001021A671A6F22F004021A671EE0C4
:101E68000025E9E70A4A136843F48073136001F018
:101E78009BF80646064B1B6813F4807FE1D101F0FE
:101E880093F8801B6428F5D90320D2E0003802407B
:101E9800007000406E4A136F43F001031367A36894
:101EA80033B301F081F80646694B1B6F13F0020F3C
:101EB8002FD101F079F8801B41F288339842F3D989
:101EC8000320B6E0052B09D0614B1A6F22F00102FE
:101ED8001A671A6F22F004021A67E0E75C4B1A6F60
:101EE80042F004021A671A6F42F001021A67D6E735
:101EF80001F05AF80646564B1B6F13F0020F08D034
:101F080001F052F8801B41F288339842F3D903203C
:101F18008FE0FDB9A369002B00F08A804C4A9268D3
:101F280002F00C02082A58D0022B19D0484A13682C
:101F380023F08073136001F037F80446444B1B68A4
:101F480013F0007F47D001F02FF8001B0228F5D9C5
:101F580003206EE03E4A136C23F080531364D9E7E4
:101F68003B4A136823F08073136001F01DF805469F
:101F7800374B1B6813F0007F06D001F015F8401BA3
:101F88000228F5D9032054E0E369226A1343626A00
:101F980043EA8213A26A5208013A43EA0243E26A18
:101FA80043EA026343F00053294A5360136843F03D
:101FB8008073136000F0F8FF0446254B1B6813F08C
:101FC800007F06D100F0F0FF001B0228F5D903209E
:101FD8002FE000202DE000202BE01D4A5268012B45
:101FE80029D002F48003E1698B4226D102F03F0335
:101FF800216A8B4223D1616A47F6C0731340B3EB61
:10200800811F1ED102F44031A36A5B08013BB1EB8A
:10201800034F18D102F07062E36AB2EB036F14D178
:10202800002006E001207047012002E0012000E0C6
:10203800002002B070BD0120FBE70120F9E7012074
:10204800F7E70120F5E70120F3E70120F1E700BFFA
:102058000038024008B5254B9B6803F00C03042B9D
:102068003FD0082B3FD1214B5A6802F03F025B68F2
:1020780013F4800F12D01D4B5968C1F388111C4806
:102088000023A1FB0001FEF755F9184B5B68C3F369
:10209800014301335B00B0FBF3F025E0134B5968B3
:1020A800C1F3881C4FEA4C11B1EB0C006EEB0E0E1D
:1020B8004FEA8E1343EA90638101091A63EB0E031A
:1020C800DB0043EA5173C90011EB0C0C43F1000328
:1020D800990200234FEA8C2041EA9C51FEF72AF925
:1020E800D3E7034800E0034808BD00BF00380240BA
:1020F80040787D010024F400002800F0A08070B52D
:102108000D460446524B1B6803F00F038B420BD25B
:102118004F4A136823F00F030B431360136803F04F
:102128000F038B4240F08D80236813F0020F17D005
:1021380013F0040F04D0474A936843F4E0539360C4
:10214800236813F0080F04D0424A936843F46043AD
:102158009360404A936823F0F003A1680B439360AF
:10216800236813F0010F31D06368012B20D0022BB4
:1021780025D0384A126812F0020F64D035498A68AF
:1021880022F0030213438B6000F00EFF0646314B2A
:102198009B6803F00C036268B3EB820F16D000F063
:1021A80003FF801B41F288339842F0D9032045E0B1
:1021B800284A126812F4003FE0D101203EE0254A87
:1021C800126812F0007FD9D1012037E0204B1B683C
:1021D80003F00F03AB420AD91D4A136823F00F031B
:1021E8002B431360136803F00F03AB422DD1236810
:1021F80013F0040F06D0174A936823F4E053E168FC
:102208000B439360236813F0080F07D0114A9368B3
:1022180023F46043216943EAC1039360FFF71AFF7F
:102228000C4B9B68C3F303130B4AD35CD8400B4B8E
:1022380018600B4B186800F079FE002070BD012073
:1022480070470120FAE70120F8E70120F6E700BF10
:10225800003C0240003802407C30000808000020A2
:1022680004000020014B1868704700BF08000020D8
:1022780008B5FFF7F7FF044B9B68C3F38223034AB3
:10228800D35CD84008BD00BF003802408C3000083D
:1022980008B5FFF7E7FF044B9B68C3F34233034AD3
:1022A800D35CD84008BD00BF003802408C3000081D
:1022B800F0B583B00446066816F001060DD0A74BAA
:1022C8009A6822F400029A609A68416B0A439A60FD
:1022D800436B002B00F039810026256815F4002592
:1022E80011D09E4AD2F88C3023F44013E16B0B4393
:1022F800C2F88C30E36BB3F5801F00F02881002B07
:1023080000F027810025236813F4801F0FD0934A1B
:10231800D2F88C3023F44003216C0B43C2F88C3084
:10232800236CB3F5800F00F0168103B901252368EB
:1023380013F0807F00D0012613F0200F40F01081A9
:10234800236813F0100F0CD0844BD3F88C2022F0A4
:102358008072C3F88C20D3F88C20A16B0A43C3F891
:102368008C20236813F4804F08D07C4AD2F8903030
:1023780023F44033616E0B43C2F89030236813F4A2
:10238800004F08D0754AD2F8903023F44023A16E4C
:102398000B43C2F89030236813F4803F08D06F4A8B
:1023A800D2F8903023F44013E16E0B43C2F890301A
:1023B800236813F4003F08D0684AD2F8903023F419
:1023C8004003216F0B43C2F89030236813F0400F8D
:1023D80008D0624AD2F8903023F00303616C0B43B3
:1023E800C2F89030236813F0800F08D05B4AD2F807
:1023F800903023F00C03A16C0B43C2F89030236893
:1024080013F4807F08D0554AD2F8903023F0300377
:10241800E16C0B43C2F89030236813F4007F08D0B6
:102428004E4AD2F8903023F0C003216D0B43C2F816
:102438009030236813F4806F08D0484AD2F890305F
:1024480023F44073616D0B43C2F89030236813F492
:10245800006F08D0414AD2F8903023F44063A16D50
:102468000B43C2F89030236813F4805F08D03B4ACE
:10247800D2F8903023F44053E16D0B43C2F890300A
:10248800236813F4005F08D0344AD2F8903023F45C
:102498004043216E0B43C2F89030236813F4800F39
:1024A80008D02E4AD2F8903023F08063A16F0B43F6
:1024B800C2F89030236813F4001F0DD0274AD2F8D1
:1024C800903023F00063E16F0B43C2F89030E36F64
:1024D800B3F1006F00F0AA80236813F0080F00D052
:1024E800012513F4802F08D01C4AD2F8903023F02D
:1024F8004073616F0B43C2F89030236813F4000FE8
:1025080009D0164AD2F8903023F08053D4F88010BE
:102518000B43C2F8903026B9236813F0007F00F00F
:1025280005810E4A136823F08063136000F03CFDB8
:1025380006460A4B1B6813F0006F79D000F034FD93
:10254800801B6428F5D90320F3E00126C5E601269F
:10255800D5E60125D7E60126E7E600BF00380240A8
:102568007F4B1A6C42F080521A641B6C03F0805344
:102578000193019B7B4A136843F48073136000F056
:1025880013FD0746774B1B6813F4807F06D100F0D4
:102598000BFDC01B6428F5D90320CAE0704B1B6FE4
:1025A80013F4407315D0226B02F440729A4210D093
:1025B8006B4B1A6F22F44072196F41F4803119671E
:1025C800196F21F4803119671A671B6F13F0010F17
:1025D80012D1236B03F44072B2F5407F1DD0604ADC
:1025E800936823F4F81393605D490B6F226BC2F371
:1025F8000B0213430B67A3E600F0D6FC0746584BC3
:102608001B6F13F0020FE4D100F0CEFCC01B41F2A7
:1026180088339842F3D903208BE05148826822F42A
:10262800F812514919400A438260DDE7012553E752
:10263800236813F0010F13D0636B8BB9484AD2F8A3
:102648008430D2F88410606803F4403343EA80137E
:1026580001F070610B43A16843EA0173C2F884304A
:10266800236813F4002F03D0E26BB2F5801F06D065
:1026780013F4801F1ED0236CB3F5800F1AD1384A8B
:10268800D2F88430D2F88410606803F4403343EA07
:102698008013E06843EA006301F0E0410B43C2F8AD
:1026A8008430D2F88C3023F01F03616A01390B4360
:1026B800C2F88C30236813F0807F11D0284AD2F8F2
:1026C8008400D2F88410666823691B0443EA8613E1
:1026D80000F07060034301F0E0410B43C2F884301E
:1026E800236813F0007F0DD0626823691B0443EA56
:1026F8008213E26843EA0263A26843EA0273184A53
:10270800C2F88430164A136843F08063136000F0FF
:102718004BFC0646124B1B6813F0006F06D100F005
:1027280043FC801B6428F5D9032002E0012D02D068
:10273800002003B0F0BD0A4A136823F080531360E9
:1027480000F032FC0546064B1B6813F0005F0DD005
:1027580000F02AFC401B6428F5D90320E9E700BFF4
:102768000038024000700040FFFCFF0F236813F49C
:10277800002F01D0E26B22B113F4801F1DD0236C0F
:10278800DBB9354AD2F88830D2F88810606903F48A
:10279800403343EA8013A06943EA006301F0E04153
:1027A8000B43C2F88830D2F88C3023F4F853A16A6E
:1027B800013943EA0123C2F88C30236813F4001F5F
:1027C80003D0E36FB3F1006F31D0236813F0080F23
:1027D80019D0214AD2F88810D2F88830606903F4F9
:1027E800403343EA801301F070610B43E16943EA27
:1027F8000173C2F88830D2F88C3023F44033E16A90
:102808000B43C2F88C30144A136843F080531360AA
:1028180000F0CAFB0446104B1B6813F0005F19D187
:1028280000F0C2FB001B6428F5D9032081E70A4A9F
:10283800D2F88800D2F888106569236A1B0443EA35
:10284800851300F07060034301F0E0410B43C2F8C8
:102858008830BAE700206CE70038024000230F2BCD
:1028680000F2EF8070B582B061E085685E000324F5
:10287800B44025EA0405CC68B4402C43846045681C
:1028880025EA02054C68C4F300129A402A434260C4
:102898005BE0DC08083450F8246003F00702950078
:1028A8000F22AA4026EA020E0A69AA4042EA0E024C
:1028B80040F824205DE0092200E0002202FA0EF22E
:1028C8002A4302345F4D45F824205F4A94686FEA32
:1028D8000C0224EA0C054E6816F4801F01D04CEA5D
:1028E8000405594CA560E46802EA04054E6816F42C
:1028F800001F01D04CEA0405534CE560646802EA05
:1029080004054E6816F4003F01D04CEA04054E4C0D
:102918006560246822404D6815F4803F01D04CEA78
:102928000402494C226001330F2B00F288800122F7
:102938009A400C6804EA020C32EA0404F3D14C68A9
:1029480004F00304013C012C8FD94A6802F0030209
:10295800032A09D0C4685D000322AA4024EA0204BD
:102968008A68AA402243C2604A6802F00302022A27
:102978008FD004684FEA430E032202FA0EF224EACB
:1029880002044A6802F0030202FA0EF222430260CD
:102998004A6812F4403FC6D02C4A546C44F4804430
:1029A8005464526C02F480420192019A9C08A51C5E
:1029B800244A52F8255003F003024FEA820E0F22F0
:1029C80002FA0EF225EA0205214A90423FF475AF59
:1029D80002F58062904222D002F58062904220D0B7
:1029E80002F5806290421ED002F5806290421CD0AF
:1029F80002F5806290421AD002F58062904218D0A7
:102A080002F58062904216D002F58062904214D09E
:102A180002F5806290423FF44EAF0A224EE701224F
:102A28004CE702224AE7032248E7042246E7052248
:102A380044E7062242E7072240E708223EE702B0C1
:102A480070BD704700380140003C0140003802402A
:102A58000000024030B405682C6824F480242C60FF
:102A6800046863608368402B05D003689960036835
:102A7800DA6030BC704703689A600368D960F8E789
:102A880010B40168CAB2103A0A4BA3FB02431B09EF
:102A9800094CE35CC3655F2A07D9084B0B40043334
:102AA8008365806D5DF8044B7047044B0B4083656C
:102AB800F7E700BFABAAAAAA7430000800FCFFFF22
:102AC800836A826992B9012B0AD0022B02D00BB11A
:102AD80000207047C36A13F0807F28D10020704718
:102AE800C36AB3F1C07F24D000207047B2F5005FFD
:102AF80009D0022B25D9032B25D1C36A13F0807F77
:102B080023D100207047032B03D8DFE803F0140417
:102B1800140A00207047C36A13F0807F0DD100208B
:102B28007047C36AB3F1C07F09D000207047012005
:102B3800704701207047012070470120704701202D
:102B4800704701207047002070470120704700003F
:102B580070B5044600F028FA002C5BD00546022325
:102B680084F83530002384F834302268136823F061
:102B78000103136023681A6812F0010F0AD000F0ED
:102B880013FA431B052BF5D920236365032084F82A
:102B9800350070BD1A68204810406168A2680A4371
:102BA800E1680A4321690A4361690A43A1690A4342
:102BB800E1690A43216A0A430243616A04291ED073
:102BC8001A602668756925F00705636A1D43042B9A
:102BD80007D1A36A1D43E36A1BB12046FFF770FFC4
:102BE80090B975612046FFF74BFFE26D3F23934094
:102BF800836000206065012384F83530C9E7E16A05
:102C0800206B01430A43DBE740236365012084F816
:102C18003500BEE70120BCE73F8010F038B5044618
:102C2800856D90F83400012830D0012084F83400F4
:102C380094F83500C0B2012804D0002384F8343059
:102C4800022038BD022084F8350000206065204647
:102C5800FFF700FFE26D3F239340AB6022681368E3
:102C680043F0160313602268536943F080035361ED
:102C7800236C23B12268136843F0080313602268A9
:102C8800136843F0010313600020DAE70220D8E755
:102C980070B50446866D00F087F994F83530DBB2DC
:102CA800022B06D080236365002384F8343001208A
:102CB80070BD05462268136823F016031360226866
:102CC800536923F080035361236CE3B122681368CE
:102CD80023F0080313602268136823F001031360CC
:102CE80023681B6813F0010F11D000F05DF9431B36
:102CF800052BF5D920236365032084F835000023CC
:102D080084F83430D4E7A36C002BDFD1E3E7E26D1D
:102D18003F239340B360012384F83530002084F8C2
:102D28003400C5E790F83530DBB2022B03D080239E
:102D3800436501207047052380F835300268136821
:102D480023F001031360002070470000F0B583B042
:102D5800044600230193724B1D68724BA3FB053593
:102D6800AD0A876D3E68C26D08239340334210D088
:102D780003681A6812F0040F0BD01A6822F00402D4
:102D88001A60C26D08239340BB60436D43F0010392
:102D98004365E26D01239340334209D022685269AA
:102DA80012F0800F04D0BB60636D43F002036365CB
:102DB800E26D04239340334209D02268126812F06E
:102DC800020F04D0BB60636D43F004036365E26DDA
:102DD80010239340334224D02268126812F0080F5F
:102DE8001FD0BB6023681A6812F4802F0DD01B68AF
:102DF80013F4002F04D1236C9BB12046984710E0B0
:102E0800A36C73B1204698470BE01A6812F4807FD0
:102E180003D11A6822F008021A60236C0BB120460D
:102E28009847E26D20239340334255D022681268B8
:102E380012F0100F50D0BB6094F83530DBB2052B80
:102E48000ED023681A6812F4802F33D01B6813F44D
:102E5800002F2AD1636C002B3ED0204698473BE0D8
:102E68002268136823F0160313602268536923F05D
:102E780080035361236CA3B12268136823F008030D
:102E88001360E26D3F239340BB60012384F8353023
:102E9800002384F83430236D002B3FD02046984718
:102EA8003CE0A36C002BE7D1EBE7E36BA3B1204632
:102EB800984711E01A6812F4807F09D11A6822F045
:102EC80010021A60012384F83530002384F8343066
:102ED800E36B0BB120469847636DFBB1636D13F04C
:102EE800010F17D0052384F835302268136823F0C2
:102EF80001031360019B01330193AB4204D823689B
:102F08001B6813F0010FF5D1012384F83530002335
:102F180084F83430E36C0BB12046984703B0F0BD19
:102F280008000020B5814E1B406D704710B504465F
:102F38000E4B18784FF47A73B3FBF0F30C4A106811
:102F4800B0FBF3F0FDF768FE68B90F2C01D901203A
:102F58000AE0002221464FF0FF30FDF719FE054B2D
:102F68001C60002000E0012010BD00BF0000002010
:102F7800080000200400002008B50320FDF7F6FD36
:102F88000F20FFF7D3FFFDF7D9FD002008BD000093
:102F9800034A1168034B1B780B441360704700BF4A
:102FA8005C02002000000020014B1868704700BF39
:102FB8005C020020034AD2F8883043F47003C2F858
:102FC8008830704700ED00E0DFF834D00D480E4936
:102FD8000E4A002302E0D458C4500433C4188C426B
:102FE800F9D30B4A0B4C002301E013600432A242D0
:102FF800FBD3FFF7DFFFFDF727F9FDF72DFC70473F
:1030080000000520000000200C000020A43000086B
:103018000C00002060020020FEE70000F8B500BFA9
:10302800F8BC08BC9E467047F8B500BFF8BC08BCA1
:043038009E467047F9
:10303C004552525F50415249545900004552525F1B
:10304C004E4F4953450000004552525F4652414D88
:10305C00450000004552525F4F56455252554E00A6
:10306C004552525F444D41000006101600061016E2
:10307C00000000000000000001020304060708091C
:08308C00000000000102030432
:08309400D8D2FF7F010000000B
:04309C0031020008F5
:0430A0000902000819
:0C30A40001000000100000000024F400F7
:0400000508002FD1EF
:00000001FF
