:020000040800F2
:10000000C0070020690200088F180008F5170008D3
:100010008D1800085F0400082B1E00080000000077
:10002000000000000000000000000000931800081D
:100030001D05000800000000911800089518000830
:10004000830200088302000883020008830200087C
:10005000830200088302000883020008830200086C
:10006000830200088302000883020008830200085C
:1000700061040008830200086D0400088302000880
:10008000830200088302000883020008830200083C
:10009000830200088302000883020008830200082C
:1000A000830200088302000883020008830200081C
:1000B000830200088302000883020008830200080C
:1000C00083020008830200088302000883020008FC
:1000D00083020008830200088302000883020008EC
:1000E00083020008830200088302000883020008DC
:1000F00083020008830200088302000883020008CC
:1001000083020008830200088302000883020008BB
:1001100083020008830200088302000883020008AB
:10012000830200088302000883020008830200089B
:10013000830200088302000883020008830200088B
:10014000830200088302000883020008830200087B
:10015000830200088302000883020008830200086B
:10016000830200088302000883020008830200085B
:1001700083020008830200088302000800000000D8
:10018000830200088302000883020008830200083B
:10019000830200088302000883020008830200082B
:1001A000830200088302000883020008830200081B
:1001B000830200088302000883020008830200080B
:1001C000830200088302000800F002F800F03CF807
:1001D0000AA090E8000C82448344AAF10107DA45A2
:1001E00001D100F031F8AFF2090EBAE80F0013F0B8
:1001F000010F18BFFB1A43F001031847A81C0000A9
:10020000C81C0000103A24BF78C878C1FAD8520739
:1002100024BF30C830C144BF04680C607047000080
:100220000023002400250026103A28BF78C1FBD8FF
:10023000520728BF30C148BF0B6070471FB501F09F
:100240001BFE1FBD10B510BD00F0CFF81146FFF723
:10025000F5FF01F0FDFD00F0EDF803B4FFF7F2FF4C
:1002600003BC00F0F5F80000094880470948004742
:10027000FEE7FEE7FEE7FEE7FEE7FEE7FEE7FEE756
:10028000FEE7FEE704480549054A064B70470000B3
:1002900019190008C9010008C0010020C00700208A
:1002A000C0030020C003002053EA020C00F0698064
:1002B0002DE9F04B4FF00006002B1FBFB3FA83F57A
:1002C00003FA05F424FA05F65E4012BF1643B2FAAB
:1002D00082F502FA05F4C5F120051EBF22FA05FCDD
:1002E00044EA0C04203556EA044C4FEA144418BF83
:1002F000641C4FF000084FF00009904271EB030CB2
:1003000039D3002919BFB1FA81F701FA07F6B0FA1B
:1003100080F700FA07F6C7F120071EBF20FA07FC96
:1003200046EA0C062037B6FBF4FCA7EB0507103FA6
:1003300007F01F0BCBF120060CFA0BFB2CFA06F68C
:1003400044BFB3460026202FA4BF5E464FF0000BEB
:100350005BEA060C08BF4FF0010B19EB0B09ABFB76
:10036000027C48EB0608C01B06FB02CC0BFB03CC4F
:1003700071EB0C01C1E70B46024641464846BDE819
:10038000F08B13B54FF000004FF00001AFF3008089
:10039000BDE81C4070474FF0000200B5134694467C
:1003A0009646203922BFA0E80C50A0E80C50B1F1CD
:1003B0002001BFF4F7AF090728BFA0E80C5048BFE1
:1003C0000CC05DF804EB890028BF40F8042B08BF7F
:1003D000704748BF20F8022B11F0804F18BF00F87B
:1003E000012B7047704770477047754600F02CF836
:1003F000AE4605006946534620F00700854618B012
:1004000020B5FFF73FFFBDE820404FF000064FF05A
:1004100000074FF000084FF0000B21F00701AC4639
:10042000ACE8C009ACE8C009ACE8C009ACE8C00958
:100430008D46704710B50446AFF300802046BDE8F6
:100440001040FFF70ABF0000004870475C01002021
:1004500001491820ABBEFEE7260002007047FEE708
:10046000014800F05FB80000FC000020014800F0E7
:1004700059B800009C00002001681823CAB2103A45
:10048000B2FBF3F2054B6FF30901032A9B5CC365D2
:1004900000D9091D8165084670470000821E0008CA
:1004A00010B583694FF0C074826A0146002053B1D1
:1004B000B3F5005F15D072B1012A0CD0022A0AD020
:1004C000032A09D104E01AB1012A06D0022A03D175
:1004D000C96AC90100D5012010BDC96AA142FAD07C
:1004E00010BD002AF7D0012AF2D0022AF3D0032A45
:1004F000F3D010BD30B50468256825F4802525604B
:10050000046863608368402B036803D099600068C7
:10051000C26030BD9A600068C16030BD704772B67D
:10052000FEE700002DE9F84304464FF00009644B54
:100530000820CDF800904FF41652A56D94F85C1089
:100540001B682E68B3FBF2F700FA01F131420FD0BD
:1005500021680A6852070BD50A6822F004020A6073
:1005600094F85C108840A860606D40F00100606500
:1005700094F85C104FF0010808FA01F0304208D0FE
:1005800021684969090604D5A860606D40F0020041
:10059000606594F85C1004208840304208D02168DF
:1005A0000968890704D5A860606D40F004006065A3
:1005B00094F85C1010208840304218D021680968F7
:1005C000090714D5A86020680168490304D50068AC
:1005D000000308D5A16C07E00168C90503D40168D0
:1005E00021F008010160216C09B12046884794F888
:1005F0005C1020208840304231D021680968C9064B
:100600002DD5A86094F8350005282068016806D02B
:10061000490347D5006800031DD4616C1CE021F03C
:10062000160101602068416921F080014161206C60
:1006300008B9A06C20B12068016821F008010160B0
:1006400094F85C303F229A40AA6084F8358084F8A0
:100650003490216D1FE0E16B09B120468847606D41
:1006600000282BD0606DC00714D0052084F8350019
:100670002068016821F0010101600098401C009091
:10068000B84203D820680068C007F6D184F83580E6
:1006900084F83490E16C002910D001B02046BDE808
:1006A000F04308470168C905D5D4036823F0100357
:1006B000036084F8358084F83490CCE7BDE8F88393
:1006C000100000202DE9F047044600F0CFF9054660
:1006D00064B102214FF0000984F8351084F8349099
:1006E0002068016821F0010101600EE00120BDE8F1
:1006F000F08700BF00F0BAF9401B052805D920217A
:100700006165032084F83500F1E720680068C007C0
:10071000F0D1D4E90020D4E90251D4E9043C2843C3
:1007200004F1180519430843116895E8E00140EA0F
:100730000C001C4B2843194040EA060040EA070021
:10074000B8F1040F40EA010003D1D4E90B131943B7
:100750000843106020680126656A4069042D20F076
:10076000070045EA00050CD1D4E90A01054341B16F
:100770002046FFF795FE20B14020606584F8356083
:10078000B4E7206845612046FFF776FE94F85C30B8
:100790003F229A408260C4F8549084F8356000206B
:1007A000A5E700003F8010F02DE9F041044690F8E5
:1007B000340000250128A66D0ED094F835C001271D
:1007C000002084F83470BCF1010F07D0022584F8B2
:1007D00034002846BDE8F0810220FBE7022784F8B8
:1007E000357060652046FFF785FE94F85C103F2069
:1007F0008840B0602068016841F0160101602068FF
:10080000416941F080014161206C20B1206801689C
:1008100041F0080101602068016841F001010160B8
:10082000D7E700002DE9F84FDFF80CB201240325CB
:100830004FF00F0A00220BF1040E00BF0B6804FA00
:1008400002F63340B34278D10F7907F00307012F46
:1008500001D0022F1AD187684FEA4209D1F80CC0A3
:1008600005FA09F827EA08070CFA09FC4CEA070C14
:10087000C0F808C0476891F804C0B743CCF3001C27
:100880000CFA02FC4CEA070CC0F804C00E79F643DF
:10089000B6070BD0C6684FEA420C8F6805FA0CF811
:1008A00026EA080607FA0CF73743C7600E7906F008
:1008B0000306022E12D1D6084FEA427800EB8606D4
:1008C00000960F69D6F820904FEAD8660AFA06FC1F
:1008D000B74029EA0C063743009E37620F79066855
:1008E0004FEA420C07F0030705FA0CF807FA0CF779
:1008F00026EA0806374307604E6816F4403F1CD0CE
:100900004E4E376847F480473760366822F0030858
:10091000970706F480460096494E3F0F4644B1467D
:10092000D6F80868DFF81C810AFA07FC404526EA79
:100930000C0603D14FF0000C41E076E0DFF808C16F
:10094000604502D14FF0010C39E0DFF800C160458D
:1009500002D14FF0020C32E0DFF8F4C0604502D162
:100960004FF0030C2BE0DFF8ECC0604502D14FF0F4
:10097000040C24E0DFF8E0C0604502D14FF0050C24
:100980001DE0DFF8D8C0604502D14FF0060C16E03C
:10099000DFF8CCC0604502D14FF0070C0FE0DFF864
:1009A000C4C0604502D14FF0080C08E0DFF8B8C0C1
:1009B000604502D14FF0090C01E04FF00A0C0CFA2F
:1009C00007FC4CEA060CC9F808C84F68DBF8006061
:1009D000FF0226EA030600D51E437746CBF80060E7
:1009E000D1F804C0DEF800605FEA8C2C26EA03062A
:1009F00000D51E43DFF840C03E60ACF1040C4F68E8
:100A0000DCF80060BF0326EA030600D51E430A4F48
:100A1000CCF80060083FD1F804C03E685FEACC3CE7
:100A200026EA030600D51E433E60521C102AFFF43E
:100A300005AFBDE8F88F0000083C01404438024093
:100A40000030014000000240000402400008024063
:100A5000000C024000100240001402400018024046
:100A6000001C02400020024000240240014880682F
:100A70007047000004000020024881680278114499
:100A80008160704704000020032010B500F06EF86C
:100A90000F2000F005F800F023F8002010BD000042
:100AA00070B50D4D04464FF47A700C4A29781268DF
:100AB000B0FBF1F0B2FBF0F000F094FD48B9102C5F
:100AC00007D200222146501E00F030F800206C6052
:100AD00070BD012070BD0000040000201000002047
:100AE0000A4808B5016841F080510160006800F0D3
:100AF000805000900548001D016841F4804101606C
:100B0000006800F48040009008BD000040380240BA
:100B1000002809DB410900F01F028900012001F1D2
:100B2000E0219040C1F80001704700000E4BF0B486
:100B30001B680D46C3F30223C3F10706042E00D938
:100B40000426191D072901D2002300E0DB1E012421
:100B500004FA06F19C40491E2940641E9940144045
:100B60002143F0BC01F062B90CED00E0064900F051
:100B7000070210B54FF6FF040868044B204040EA16
:100B800002201843086010BD0CED00E00000FA05DB
:100B90002DE9F84F04460078DFF824944FF0000662
:100BA0003746C0070ED0D9F8001021F40001C9F86B
:100BB0000010D9F80010626B1143C9F80010606B87
:100BC00000B90126FE4D2068843500030ED5E16B87
:100BD000286820F4401008432860E06BB0F5801FBF
:100BE00001D010B102E0012600E0012720684FF497
:100BF000800BC0020CD5216C286820F4400008430B
:100C00002860206C584501D1012601E000B9012778
:100C10002068C10100D50126800666D5E848383035
:100C2000016841F0805101600068DFF898A300F08E
:100C300080500090DAF8001041F48071CAF800107A
:100C4000FFF714FF804605E0FFF710FFA0EB080058
:100C500064287DD8DAF80000C005F5D5DFF8608398
:100C600008F16808D8F8000010F440702AD0218EEE
:100C700001F44071814225D0D8F80010D8F8002046
:100C800021F4407142F48032C8F80020D8F80020E6
:100C900022F48032C8F80020C8F80010D8F800000C
:100CA000C0070FD0FFF7E2FE824607E0FFF7DEFE47
:100CB000A0EB0A0141F288308142CAD8D8F800007E
:100CC0008007F3D5206BC0F3012103297ED0D9F82A
:100CD000001021F4F811C9F80010228ED8F8001085
:100CE000C2F30B021143C8F800102078C00607D5E4
:100CF000286820F0807028602868A16B084328606D
:100D00002188AF488830490405D5626E016821F416
:100D10004031114301602188090405D5A26E0168A4
:100D200021F44021114301602168C90305D5E26E19
:100D3000016821F44011114301602168890305D540
:100D4000226F016821F4400111430160217800E025
:100D500016E1490605D5626C016821F003011143D3
:100D600001602178090605D5A26C016821F00C010B
:100D7000114301602188C90505D5E26C016821F0A5
:100D80003001114301602188890505D5226D016874
:100D900021F0C001114301602188490505D5626D2C
:100DA000016821F44071114301602188090505D5CE
:100DB000A26D016821F44061114301602188C904DA
:100DC00007D5E26D016821F4405100E04AE011438B
:100DD00001602188890405D5226E016821F4404113
:100DE000114301602168490205D5A26F016821F015
:100DF00080611143016021684FF0006A890209D5C2
:100E0000E26F016821F0006111430160E16F51451B
:100E100000D1012721680A0700D50127490305D51C
:100E2000626F016821F0407111430160216809027D
:100E300006D5D4F88020016821F08051114301606B
:100E4000DFF88491012E02D0206880017ED5D9F888
:100E500000004E4620F08060C9F80000FFF706FE53
:100E600080460FE0594AD9F80030104023F4F812B8
:100E70000243C9F8002030E7FFF7F8FDA0EB0800B7
:100E800064287DD830680001F6D421784C487C3045
:100E9000C90712D0616B81B9237A62680168D0F802
:100EA00000C09201C1F3014142EA0142CCF3036167
:100EB00042EA016141EA0371016021680A0303D536
:100EC000E26BB2F5801F04D0C9021AD5216C5945D6
:100ED00017D16368016894F80CC002689B01C1F3E4
:100EE000014143EA0141C2F3027241EA0C6141EA65
:100EF000027101602968626A21F01F01521E1143CC
:100F000029602168C90110D5238A62680168D0F878
:100F100000C09201C1F3036142EA034242EA016266
:100F2000CCF3027142EA01710160216889010CD59C
:100F30006168228A237B94F808C0890141EA024152
:100F400041EA036141EA0C71016000E011E031689F
:100F5000B04641F080613160FFF788FD064604E04D
:100F6000FFF784FD801B64280AD8D8F80000000130
:100F7000F6D56FB3D9F800004E4620F0805000E05F
:100F80007BE0C9F80000FFF771FD074605E000BFF0
:100F9000FFF76CFDC01B64286FD83068C043800029
:100FA000F6D50748216880300A0301D5E26B1AB1F3
:100FB000C90225D5216C19BB63690168277E08E049
:100FC000083802400070004000380240FFFCFF0F6C
:100FD0005AE00268C1F301419B0143EA0143C2F3B5
:100FE000027143EA076242EA0171016029686FF009
:100FF000FF03A26A21F4F85103EB02221143296096
:101000002168890212D5E16F51450FD1238C6269A5
:10101000016807689201C1F3036142EA034242EAB0
:101020000162C7F3027142EA017101602178090788
:1010300016D561690268D0F800C08B01277FC2F322
:101040000362CCF3014143EA014141EA026141EA12
:10105000077101602868E16A20F440300843286085
:10106000306840F080503060FFF700FD044607E034
:10107000FFF7FCFC001B642802D90320BDE8F88FB1
:101080003068C0438000F3D40020F7E72DE9F04733
:1010900005000F4663D0444E306800F00F00B842A0
:1010A00009D2306820F00F0038433060306800F01B
:1010B0000F00B84253D128683C4C810712D5400735
:1010C00003D5206840F4E05020602878000703D55D
:1010D000206840F460402060A968206820F0F0009B
:1010E000084320602878C0072AD03049686808394A
:1010F000012810D00968022810D0890700292EDAAB
:10110000216821F0030101432160FFF7AFFC804615
:1011100041F288390DE009688903EFE78901EDE7BD
:10112000FFF7A4FCA0EB0801494502D90320BDE864
:10113000F0876868216801F00C01B1EB800FEFD1F6
:10114000306800F00F00B8420BD9306820F00F0073
:1011500038433060306800F00F00B84201D0012001
:10116000E5E72878400705D5E968206820F4E050D5
:10117000084320602878000706D52869216821F4F3
:10118000604141EAC000206000F038F82168084A58
:10119000C1F30311515CC840064908600648006865
:1011A000FFF77EFC0020C2E7003C02400838024006
:1011B0008A1E00081000002008000020044905488D
:1011C00009680068044AC1F38221515CC840704735
:1011D00008380240100000209A1E00080449054803
:1011E00009680068044AC1F34231515CC840704745
:1011F00008380240100000209A1E0008154910B55A
:101200001548096811F00C0213D01449042A0FD0B4
:10121000082A0ED10F4C241F2268236802F03F02D7
:101220005B0207D52068C0F38810A0FB010106E02F
:10123000084610BD2168C1F38811A1FB00010023FD
:10124000FFF732F82168C1F30141491C4900B0FBA6
:10125000F1F010BD083802400024F40040787D0110
:101260002DE9F84F04004FF000076ED02078DFF82A
:1012700068A3AAF10408C007A8F104054CD0DAF865
:1012800000105046C1F38101012908D00068C0F365
:10129000810002280AD1D8F80000400206D528684B
:1012A000800339D560680028DFD035E06068B0F58C
:1012B000803F0BD010B1B0F5A02F11D0286820F4DA
:1012C00080302860286820F4802002E0286840F4FC
:1012D00080302860606890B1FFF7C8FB06460AE0DE
:1012E000286840F480202860F0E700BFFFF7BEFBCD
:1012F000801B642872D828688003F7D50CE0FFF7BC
:10130000B5FB064605E000BFFFF7B0FB801B642875
:10131000F0D828688003F7D42078800742D5DAF81F
:101320000010504611F00C0F08D00068C0F3810087
:1013300002280BD1D8F80000400207D428688007A3
:1013400018D5E068012800D114E041E1E0680028E8
:10135000286817D040F001002860FFF787FB064699
:1013600005E000BFFFF782FB801B0228C2D8286877
:101370008007F7D52069296821F0F80141EAC0000B
:1013800028600FE020F001002860FFF76FFB0646A1
:1013900005E000BFFFF76AFB801B02281ED8286803
:1013A0008007F7D42078000729D58B4861696C3015
:1013B00000298146016812D041F001010160FFF768
:1013C00055FB064605E000BFFFF750FB801B0228D7
:1013D00004D8D9F800008007F6D510E089E021F0A4
:1013E00001010160FFF742FB064604E0FFF73EFB08
:1013F000801B02287DD8D9F800008007F6D4207819
:1014000040076BD5DFF8D09109F13809D9F8000011
:10141000C0000BD4D9F8001041F08051C9F8001079
:10142000D9F80000012700F0805000906B48016857
:10143000C90512D40168834641F480710160FFF749
:1014400015FB064605E000BFFFF710FB801B642874
:101450004FD8DBF80000C005F6D55F4EA0686836AF
:1014600001280AD008B1052811D0306820F0010009
:101470003060306820F0040002E0306840F0010085
:101480003060A068A0B1FFF7F1FA83460CE0306845
:1014900040F004003060F0E7FFF7E8FAA0EB0B0142
:1014A00041F28830814266D830688007F4D50EE07A
:1014B000FFF7DCFA834607E0FFF7D8FAA0EB0B0151
:1014C00041F28830814256D830688007F4D42FB179
:1014D000D9F8001021F08051C9F80010A069C8B3F4
:1014E000DAF80010C1F3810102294BD002282868E4
:1014F00000E040E020F08070286003D0FFF7B6FAEB
:1015000004463BE0FFF7B2FA064604E0FFF7AEFA06
:10151000801B02282FD828688001F7D4D4E90962FB
:10152000D4E907012E4B570894F82C20084303EB0D
:10153000074343EA8611084340EA026040F0005046
:10154000C8F80000286840F080702860FFF78EFA25
:10155000044606E03EE000BFFFF788FA001B0228C1
:1015600009D828688001F7D534E000BFFFF77EFA7C
:10157000001B022802D90320BDE8F88F28688001EB
:10158000F4D427E00128D8F8000021D0E16900F464
:1015900080028A421CD1216A00F03F028A4217D1A0
:1015A000626A47F6C0710140B1EB821F10D1A16A97
:1015B0004FF0FF3200F4403302EB5101B3EB014F27
:1015C00006D194F82C1000F07060B0EB016F01D0E0
:1015D0000120D1E70020CFE708380240007000402A
:1015E0000000FFFF401EB0F1807F10B501D3012045
:1015F00010BD4FF0E02460610F21601700F016FC71
:101600000020A0610721216110BD704710B50400C2
:1016100002D0E06F10B107E0012010BD002084F877
:101620007800204600F026F82420E0672068016852
:1016300021F001010160204600F07AFA0128ECD087
:10164000606A10B1204600F06FF92068416821F40B
:10165000904141602068816821F02A018160206802
:10166000016841F0010101602046BDE8104000F032
:10167000BFB900002DE9F043A7B00746142121A807
:10168000FEF789FE84216846FEF785FE30493868FA
:10169000884259D180140090002468461794FFF7BF
:1016A00077FA08B1FEF73BFF2A48016841F0804114
:1016B0000160006800F080402690264810380168DC
:1016C00041F020010160006821AD022100F02000FE
:1016D0002690C020082385E8130003221E48CDE988
:1016E000242321A9FFF79EF81C4E4FF480691C4A61
:1016F0004FF0206830463260C6E90184C6E90349EC
:101700007461B461F46134627462FEF7DBFF08B1A6
:10171000FEF705FF114D40237E676035B76305F185
:1017200008000F4A303A80E818026C612846AC6124
:10173000EC612C626C62C5E90028FEF7C3FF08B1BA
:10174000FEF7EDFE3D67AF6327B0BDE8F083000014
:101750000078004040380240001402409C00002005
:101760005860024070B50446C06F202801D00220A6
:1017700070BD29B322B3206F0023E1642125A4F8B2
:101780005020A4F85220C4F88430E567D0B1154940
:10179000C163216F14480864216F1448C864206F26
:1017A000036513462068256F00F12802E16C284686
:1017B000FEF7FAFF30B11021C4F884102020E06752
:1017C000012070BD2168402008622068083050E880
:1017D000001F41F0800140E80012002AF5D10020EE
:1017E00070BD0000811A0008C11A0008351A0008EF
:1017F00070477047FEE700000D4808B5016841F4E6
:101800000011016000680022114600F400100090F1
:101810000C20FFF78BF90C20FFF77AF900220E203D
:101820001146FFF783F9BDE808400E20FFF770B9B5
:1018300030380240054808B5016841F020010160D8
:10184000006800F02000009008BD00003038024021
:101850000D48002110B50B4C0C224FF416530460B8
:10186000C0E90131C160C0E904128161C161016256
:101870004162FFF7CBFE002803D0BDE81040FEF721
:101880004EBE10BD0078004014000020FEE7FEE7C9
:1018900070477047FFF7F0B810B592B03021684636
:1018A000FEF779FD14210CA8FEF775FD18480168B4
:1018B00041F080510160006800F08050119015489F
:1018C000016821F4404141F4804101600068102228
:1018D0000024069400F44040119002200090012161
:1018E0006846CDE90312FFF7BBFC08B172B6FEE70C
:1018F0000F200E94CDE90C0400210F940CA8109435
:10190000FFF7C4FB002801D072B6FEE712B010BD8D
:1019100040380240007000400248016841F4700104
:101920000160704788ED00E090F82410C90706D0E8
:101930000168836A4A6822F400321A434A6090F8C8
:101940002410890706D50168C36A4A6822F48032E8
:101950001A434A6090F82410490706D50168036BC2
:101960004A6822F480221A434A6090F8241009073A
:1019700006D50168436B4A6822F400421A434A6064
:1019800090F82410C90606D50168836B8A6822F492
:1019900080521A438A6090F82410890606D501689F
:1019A000C36B8A6822F400521A438A6090F82410AC
:1019B000490611D50168036C4A6822F480121A4363
:1019C0004A60016CB1F5801F06D10168436C4A681A
:1019D00022F4C0021A434A6090F82410090606D582
:1019E0000168826C486820F400201043486070470A
:1019F00038B500250446C0F88450FFF737F8034691
:101A00002068006800070BD56FF07E400090002230
:101A100020464FF4001100F0A3F908B1032038BDAF
:101A20002020E067C4F8800025666566002084F801
:101A3000785038BD70B5846B00252168E06FD4F80C
:101A400080608968090606D5212804D1A4F852507F
:101A5000204600F060F820688068400606D5222EF7
:101A600004D1A4F85A50204600F02FF8D4F884008E
:101A700040F01000C4F884002046FFF7C6FD70BD9A
:101A800010B5C169806BB1F5807F16D00021A0F838
:101A900052100168083151E8002F22F0800241E81D
:101AA0000023002BF5D1026852E8001F41F04001ED
:101AB00042E80013002BF6D110BDFFF799FE10BDD0
:101AC00010B5806BFFF795FE10BD016851E8002F3F
:101AD00022F4907241E80023002BF6D1016808310E
:101AE00051E8002F22F0010241E80023002BF5D13C
:101AF000016E012908D1026852E8001F21F010018F
:101B000042E80013002BF6D100212022C0F88020EB
:101B1000016681667047026852E8001F21F0C0012B
:101B200042E80013002BF6D12021C1677047000066
:101B30002DE9F04104460368C2698168D4E9045084
:101B4000DFF8F0C17C4E29431F68002510437B4A13
:101B5000014307EA0C070F431F604FF40040216860
:101B6000E7684B6823F440533B434B602768A36905
:101B7000216AD7F808C019432CF430630B43BB60CB
:101B80002168B1420AD1116811F0030152D0012934
:101B90007CD0022971D003296ED184E0684B994230
:101BA0000AD1116811F00C0167D0042965D0082909
:101BB00075D00C2960D176E0624B99420AD1116848
:101BC00011F0300159D010296BD0202967D030296D
:101BD00052D168E05C4B99420AD1116811F0C00102
:101BE0004BD040295DD0802959D0C02944D15AE03A
:101BF000564B99420DD1116811F440713DD0B1F5A9
:101C0000807F4ED0B1F5007F49D0B1F5407F33D110
:101C100049E04F4B99420FD1116811F4406109D04E
:101C2000B1F5806F3DD0B1F5006F38D0B1F5406FA0
:101C300022D138E0012120E0464B99420DD11168B4
:101C400011F4405119D0B1F5805F2AD0B1F5005F91
:101C500025D0B1F5405F0FD125E03F4B99420BD124
:101C6000116811F4404108D0B1F5804F19D081427C
:101C700015D0B1F5404F16D01021E369374A4FF621
:101C8000EF7683422ED1092949D201E009E006E02E
:101C9000DFE801F00B0E1145134545451600022102
:101CA000EBE70421E9E70821E7E7FFF787FA06E019
:101CB000FFF794FA03E0104602E0FFF79FFA78B3CB
:101CC0006168400000EB5100B0FBF1F0A0F11001A1
:101CD000B14224D84FF6F0732168C0F34202184095
:101CE000104320E009291AD2DFE801F005080B199A
:101CF0000D1919191000FFF761FA06E0FFF76EFAE7
:101D000003E0104602E0FFF779FA48B1616800EBA2
:101D10005100B0FBF1F0A0F11001B14201D9012551
:101D200002E0216880B2C8600020A066E066284614
:101D3000BDE8F081F369FFEF0010014090380240E8
:101D40000044004000480040004C0040005000406B
:101D50000014014000780040007C00400024F400A2
:101D60002DE9F0479A4617460E460446089D4FF067
:101D700000094FF020084CE0681C4AD0FEF776FEC0
:101D8000A0EB0A00A8422AD84DB320680168490791
:101D90003FD5C069C04300053BD421684FF40060C3
:101DA0000862216851E8000F20F4D07041E8000279
:101DB000002AF6D12068083050E8001F21F0010108
:101DC00040E80012002AF5D1C4F87C8084F87890AD
:101DD000C4F88080C4F884800320BDE8F0872068C0
:101DE00050E8001F21F4D07140E80012002AF6D11B
:101DF0002068083050E8001F21F0010140E800127F
:101E0000002AF5D1C4F87C8084F87890C4F88080EA
:101E1000E2E72068C06936EA000004D00020B8423A
:101E2000AAD00020D9E70120F9E7FEE7090700283A
:101E30004FEA116104DB00F1E02080F800147047E4
:101E400000F00F0000F1E02080F8141D7047000042
:101E5000FEF71AFEFFF720FDFFF7ECFCFFF7CCFCC6
:101E6000FFF7F6FC024903220248FFF77BFCFEE77E
:101E700000000020140000204FF04070E1EE100A36
:101E80007047000610160006101600000000000043
:101E90000000010203040607080900000000010217
:101EA00003040000C41E000800000020140000000D
:101EB00004020008D81E000814000020AC0700002F
:101EC00020020008200A00000100000010000000AD
:081ED000000000000024F400F2
:04000005080001C925
:00000001FF
